:1000000027C11DC335C167C333C132C131C130C13E
:100010002FC12EC12DC12CC12BC12AC129C128C17C
:1000200027C126C125C124C123C122C121C120C1AC
:100030001FC11EC128012801ED00D000BD00B00085
:10004000A5009C0095008F008A00850080007D003F
:1000500079007600730070006D006B006900660027
:100060006400620061005F005D005B005A005800A0
:100070005700560054005300520050004F004E00ED
:100080004D004C004B004A00490048004700460024
:1000900045004400430042004200410040003F0050
:1000A0003E003E003D003C003B003B003A00390072
:1000B000390038003700370036003500350034008D
:1000C00034003300320032003100310030003000A3
:1000D0002F002F002E002D002D002C002C002B00B7
:1000E0002B002A002A0029002900280028002700C8
:1000F00027002600260026002500250024002400D5
:1001000023002300220022002100210021002000E2
:1001100020001F001F001E001E001E001D001D00ED
:100120001C001C001C001B001B001A001A001900F8
:100130001900190018001800170017001700160002
:10014000160016001500150014001400140013000A
:100150001300120012001200110011001000100014
:1001600010000F000F000E000E000E000D000D001D
:100170000C000C000C000B000B000B000A000A0026
:10018000090009000900080008000700070007002F
:10019000060006000500050004000400040003003A
:1001A0000300020002000200010001000000000044
:1001B000FFFFFFFFFEFFFEFFFEFFFDFFFDFFFCFF59
:1001C000FCFFFBFFFBFFFAFFFAFFF9FFF9FFF8FF67
:1001D000F8FFF7FFF7FFF6FFF6FFF5FFF5FFF4FF77
:1001E000F3FFF3FFF2FFF2FFF1FFF0FFF0FFEFFF8D
:1001F000EFFFEEFFEDFFEDFFECFFEBFFEAFFEAFFA5
:10020000E9FFE8FFE7FFE6FFE5FFE4FFE3FFE2FFCA
:10021000E1FFE0FFDFFFDEFFDDFFDBFFDAFFD8FFFE
:10022000D7FFD5FFD3FFD0FFCEFFCAFFC6FFC1FF68
:10023000B8FFB8FF00A12283E445C66748E96ACB4E
:10024000AC0D8E2FD071F253349516B79839BA1B76
:1002500011241FBECFEFD4E0DEBFCDBF11E0A0E080
:10026000B1E001C01D92AD35B107E1F76FD2F6C321
:10027000C7CE2098E9E6F0E0808182608083E8E6DE
:10028000F0E0808181608083EBE6F0E08081816036
:1002900080830895E1E8F0E08081826080830895A2
:1002A000E1E8F0E080818D7F8083089510928500E1
:1002B000109284000895AF92BF92CF92DF92EF9296
:1002C000FF920F931F93DF93CF930F92CDB7DEB7BB
:1002D00080912E0190912F01A0913001B0913101B8
:1002E0008093010190930201A0930301B093040154
:1002F000E0900101F09002010091030110910401CE
:100300002091560130915701409158015091590167
:100310008091520190915301A0915401B0915501E7
:1003200082179307A407B50750F580915201909169
:100330005301A0915401B0915501809325019093F0
:100340002601A0932701B0932801A0902501B09029
:100350002601C0902701D0902801809156019091EC
:100360005701A0915801B0915901809329019093B0
:100370002A01A0932B01B0932C0119822AC08091ED
:10038000560190915701A0915801B0915901809365
:10039000250190932601A0932701B0932801A090F6
:1003A0002501B0902601C0902701D09028018091AE
:1003B000520190915301A0915401B0915501809345
:1003C000290190932A01A0932B01B0932C0181E085
:1003D000898320E030E0CC24DD24F901EE0FFF1FFB
:1003E000EE0FFF1FE25DFE4F80819181A281B381FC
:1003F0008A159B05AC05BD0520F4A082B182C2829E
:10040000D3822F5F3F4F2A30310539F780912E017B
:1004100090912F01A0913001B091310180930101A1
:1004200090930201A0930301B09304016091320103
:1004300070913301809134019091350100E010E01A
:100440006A197B098C099D0920E23EE440E050E0F6
:10045000C4D2A8019701E0D2209305013093060190
:100460004093070150930801609136017091370164
:1004700080913801909139016A197B098C099D0995
:1004800020EA3FE040E050E0A8D2A8019701C4D2A2
:100490002093090130930A0140930B0150930C0102
:1004A00060913A0170913B0180913C0190913D0136
:1004B0006A197B098C099D0920E533EC40E050E086
:1004C0008CD2A8019701A8D220930D0130930E0180
:1004D00040930F01509310016091420170914301CC
:1004E00080914401909145016A197B098C099D090D
:1004F00028EA31E640E050E070D2A80197018CD2A2
:100500002093150130931601409317015093180161
:100510006091460170914701809148019091490195
:100520006A197B098C099D0920EC3FE440E050E00A
:1005300054D2A801970170D22093190130931A0167
:1005400040931B0150931C0160914A0170914B0133
:1005500080914C0190914D016A197B098C099D098C
:1005600020EA3FE040E050E038D2A801970154D2A1
:1005700020931D0130931E0140931F0150932001D1
:1005800060914E0170914F01809150019091510105
:100590006A197B098C099D0920EA3FE040E050E0A0
:1005A0001CD2A801970138D2209321013093220157
:1005B0004093230150932401E981E13079F0E4E391
:1005C000F0E0849190E0A0E0B0E08093250190936A
:1005D0002601A0932701B09328011CC060914E0111
:1005E00070914F0180915001909151016A197B09DE
:1005F0008C099D0920E335E740E050E0EED1A801E9
:1006000097010AD2209325013093260140932701B8
:100610005093280181E080932D010F90CF91DF91BD
:100620001F910F91FF90EF90DF90CF90BF90AF9010
:1006300008952091840030918500C90108951F928A
:100640000F920FB60F9211242F933F934F935F9306
:100650006F937F938F939F93AF93BF93EF93FF938A
:10066000E8981EDE80918400909185002DE18D3404
:10067000920718F010925A0118C0E0915A01F0E068
:100680008091840090918500A0E0B0E0EE0FFF1F04
:10069000EE0FFF1FE25DFE4F80839183A283B38341
:1006A00080915A018F5F80935A0180915A018B305B
:1006B00009F401DEFF91EF91BF91AF919F918F916E
:1006C0007F916F915F914F913F912F910F900FBE4E
:1006D0000F901F9018951F920F920FB60F92112432
:1006E0002F933F934F935F936F937F938F939F933A
:1006F000AF93BF93EF93FF9393B18091000123B128
:1007000020930001892780FF10C08091000180FFA5
:1007100003C0529A5A9809C05A98109285001092B4
:100720008400B8DD5298E09AE89AFF91EF91BF916A
:10073000AF919F918F917F916F915F914F913F9179
:100740002F910F900FBE0F901F9018954F925F92B0
:100750006F927F928F929F92AF92BF92CF92DF92D1
:10076000EF92FF920F931F93CF93DF93539A549A74
:1007700025982D9A7EDDBFD078941D9B03C04AE05A
:10078000942E02C03BE0932E2AE0C22ED12CE12C05
:10079000F12C94E6492E512C612C712C80912D0165
:1007A000882321F080E3A82E85E7B82EB6D08823D1
:1007B00009F491C0AFD0082F892D01D1081729F471
:1007C000882D8E3711F4C0E3D5E7892DF8D00817AE
:1007D00009F080C0882D8E3709F07CC080912D01F2
:1007E000882309F477C01330D1F1143028F4113084
:1007F000D1F0123030F509C0153009F44EC0153073
:10080000E0F1163009F065C054C0609105017091A7
:1008100006018091070190910801A7019601FCD083
:1008200080E192E037C06091090170910A018091E6
:100830000B0190910C01A7019601EED081E192E0AD
:1008400029C060910D0170910E0180910F0190916E
:100850001001A3019201E0D080E092E01BC0609102
:100860001D0170911E0180911F0190912001A7012F
:100870009601D2D082E192E00DC060912101709189
:1008800022018091230190912401A3019201C4D0FF
:1008900081E092E0BA01A9010AC04091250150917E
:1008A0002601609127017091280180E094E056D0E4
:1008B00010C04091190150911A0160911B01709173
:1008C0001C0180E095E04AD010922D01802E10E0AE
:1008D00002C01F5F802EA114B10429F00894A10862
:1008E000B1085B9A01C05B98209719F021975C9A38
:1008F00055CF5C9853CF80E18093C400E0ECF0E0EA
:1009000080818260808388E18093C10086E080934B
:10091000C20008958091C60008958091C000881F8C
:100920008827881F08959091C00095FFFCCF809381
:10093000C60020915B0130915C01280F311D230F0F
:1009400020935B0110925C01089580915B0180957A
:10095000EADF10925C0110925B0108950F931F93E0
:10096000DF93CF9300D000D000D0CDB7DEB79A830D
:1009700089834B835C836D837E8380E1D4DF8981AF
:10098000D2DFFE0131968181CEDF8E010D5F1F4FD8
:100990008B81C9DFF8018181C6DFF8018281C3DF65
:1009A000F8018381C0DFD1DF26960FB6F894DEBF51
:1009B0000FBECDBFCF91DF911F910F9108958D3163
:1009C00018F4882319F003C08CE101C081E0E82FFE
:1009D000F0E0ED5CFD4F84910895629FD001739F1C
:1009E000F001829FE00DF11D649FE00DF11D929FCB
:1009F000F00D839FF00D749FF00D659FF00D99270A
:100A0000729FB00DE11DF91F639FB00DE11DF91F2D
:100A1000BD01CF0111240895A1E21A2EAA1BBB1B10
:100A2000FD010DC0AA1FBB1FEE1FFF1FA217B307BA
:100A3000E407F50720F0A21BB30BE40BF50B661FD0
:100A4000771F881F991F1A9469F760957095809594
:100A500090959B01AC01BD01CF010895F894FFCFA3
:00000001FF
